:020000040000FA
:100000000C9462000C948A000C948A000C948A0070
:100010000C948A000C948A000C948A000C948A0038
:100020000C948A000C948A000C948A000C948A0028
:100030000C948A000C948A000C948A000C948A0018
:100040000C94E1070C948A000C94AF070C94890778
:100050000C948A000C948A000C948A000C948A00F8
:100060000C948A000C948A000000000024002700F1
:100070002A0000000000250028002B0000000000DE
:1000800023002600290004040404040404040202DA
:100090000202020203030303030301020408102007
:1000A0004080010204081020010204081020000012
:1000B0000008000201000003040700000000000027
:1000C00000002B0811241FBECFEFD8E0DEBFCDBF4C
:1000D00023E0A6E8B2E001C01D92A335B207E1F724
:1000E00012E0A0E0B1E0E0EDFEE102C005900D926B
:1000F000A638B107D9F710E0C2E6D0E004C02197D6
:10010000FE010E946E0DC136D107C9F70E94750825
:100110000C94660F0C940000AF92BF92CF92DF92C6
:10012000EF92FF920F931F93CF93DF936C017B01AC
:100130008B01040F151FEB015E01AE18BF08C0173D
:10014000D10759F06991D601ED91FC910190F081B0
:10015000E02DC6010995892B79F7C501DF91CF9173
:100160001F910F91FF90EF90DF90CF90BF90AF90D5
:100170000895FC01538D448D252F30E0842F90E0AD
:10018000821B930B541710F0CF9608950197089592
:10019000FC01918D828D981761F0A28DAE0FBF2F5B
:1001A000B11D5D968C91928D9F5F9F73928F90E0B1
:1001B00008958FEF9FEF0895FC01918D828D981720
:1001C00031F0828DE80FF11D858D90E008958FEF5D
:1001D0009FEF0895FC01918D228D892F90E0805C26
:1001E0009F4F821B91098F73992708958AE992E0A6
:1001F0000E94EA0021E0892B09F420E0822F089573
:1002000080E090E0892B29F00E94F60081110C9487
:1002100000000895FC01A48DA80FB92FB11DA35AA9
:10022000BF4F2C91848D90E001968F739927848F16
:10023000A689B7892C93A089B1898C918370806439
:100240008C93938D848D981306C00288F389E02DDA
:1002500080818F7D80830895EF92FF920F931F938B
:10026000CF93DF93EC0181E0888F9B8D8C8D981369
:100270001AC0E889F989808185FF15C09FB7F89475
:10028000EE89FF896083E889F989808183708064C1
:1002900080839FBF81E090E0DF91CF911F910F910C
:1002A000FF90EF900895F62E0B8D10E00F5F1F4F1B
:1002B0000F731127E02E8C8D8E110CC00FB607FC2A
:1002C000FACFE889F989808185FFF5CFCE010E94B8
:1002D0000A01F1CFEB8DEC0FFD2FF11DE35AFF4F1B
:1002E000F0829FB7F8940B8FEA89FB898081806246
:1002F000CFCFCF93DF93EC01888D8823B9F0AA8903
:10030000BB89E889F9898C9185FD03C0808186FDD0
:100310000DC00FB607FCF7CF8C9185FFF2CF80811F
:1003200085FFEDCFCE010E940A01E9CFDF91CF9189
:100330000895833081F028F4813099F08230A9F05B
:1003400008958730A9F08830C9F08430B1F48091E5
:1003500080008F7D03C0809180008F778093800024
:10036000089584B58F7784BD089584B58F7DFBCFC4
:100370008091B0008F778093B00008958091B00095
:100380008F7DF9CFCF93DF93282F30E0F901E2552D
:10039000FF4F8491F901E656FF4FD491F901EA57D6
:1003A000FF4FC491CC23A1F081110E949901EC2F41
:1003B000F0E0EE0FFF1FE458FF4FA591B491EC91D0
:1003C000ED2381E090E009F480E0DF91CF91089582
:1003D00080E090E0FACF1F93CF93DF93282F30E097
:1003E000F901E255FF4F8491F901E656FF4FD49190
:1003F000F901EA57FF4FC491CC23A9F0162F8111C0
:100400000E949901EC2FF0E0EE0FFF1FEE58FF4F16
:10041000A591B4918FB7F894EC91111108C0D095C3
:10042000DE23DC938FBFDF91CF911F910895DE2BE8
:10043000F8CFCF93DF9390E0FC01E656FF4F249175
:100440008A579F4FFC0184918823D1F090E0880F58
:10045000991FFC01E859FF4FA591B491FC01EE589A
:10046000FF4FC591D491623071F49FB7F8943C91DD
:10047000822F809583238C93E8812E2B28839FBF26
:10048000DF91CF9108958FB7F894EC912E2B2C9398
:100490008FBFF6CF3FB7F89480918F029091900272
:1004A000A0919102B091920226B5A89B05C02F3F62
:1004B00019F00196A11DB11D3FBFBA2FA92F982F8A
:1004C0008827BC01CD01620F711D811D911D42E085
:1004D000660F771F881F991F4A95D1F708958F924D
:1004E0009F92AF92BF92CF92DF92EF92FF924B0119
:1004F0005C010E944A026B017C010E944A026C1955
:100500007D098E099F09683E734081059105A8F316
:1005100021E0821A9108A108B10888EEC80E83E094
:10052000D81EE11CF11C81149104A104B10429F727
:10053000FF90EF90DF90CF90BF90AF909F908F9003
:1005400008952FB7F89460918B0270918C0280917E
:100550008D0290918E022FBF0895089590E080E063
:100560000895FB0101900020E9F73197AF01461B88
:10057000570BDC01ED91FC910280F381E02D099491
:10058000CF93DF93FC0144815581608171818AE9B9
:1005900092E00E948C00EC0169E271E08AE992E04D
:1005A0000E94B1028C0F9D1FDF91CF910895CF93D0
:1005B000DF93BC018AE992E00E94B102EC0169E29A
:1005C00071E08AE992E00E94B1028C0F9D1FDF91D9
:1005D000CF9108950C94B102CF93DF93EC0160E0CA
:1005E0008E810E94EB0161E08E810E94EB0160E050
:1005F0008E810E94EB018BE891E00197F1F7DF918A
:10060000CF910895CF92DF92EF92FF920F931F93B5
:10061000CF93DF936C017C0187E0E80EF11CD0E002
:10062000C0E0062F10E0B8010C2E02C0759567954A
:100630000A94E2F76170F70181917F010E94EB015A
:100640002196C430D10579F7C601DF91CF911F9172
:100650000F91FF90EF90DF90CF900C94EC02CF922F
:10066000DF92EF92FF920F931F93CF93DF93EC01F2
:10067000F62E642F8C810E94EB018D818F3F19F043
:1006800060E00E94EB010F2D10E08F8584FF25C0F4
:100690006E0187E0C80ED11CF12CE12CB8010E2CA4
:1006A00002C0759567950A94E2F76170F601819131
:1006B0006F010E94EB01FFEFEF1AFF0A88E0E816D6
:1006C000F10461F7CE01DF91CF911F910F91FF905F
:1006D000EF90DF90CF900C94EC02B80184E0759518
:1006E00067958A95E1F7CE010E9402036F2DCE0136
:1006F000DF91CF911F910F91FF90EF90DF90CF90FE
:100700000C94020340E0682F87E393E00C942F03DE
:1007100081E00E9482038BE39FE10197F1F7089546
:10072000CF93DF93823029F49091460398609093A1
:10073000460380934A0310924B0380E480934C035A
:1007400080E180934D0380E580934E0361E08091CA
:100750003B030E94190280913C038F3F19F061E036
:100760000E94190261E080913D030E941902C7E3D3
:10077000D3E09E01275333408091460384FD0BC094
:1007800084E090E021962817390744F461E08E81D7
:100790000E941902EECF88E090E0F4CF8BE39DE059
:1007A0000197F1F760E080913B030E94EB0160E06C
:1007B00080913D030E94EB0180913C038F3F19F033
:1007C00060E00E94EB018091460384FD34C063E049
:1007D00087E393E00E940203CBE4D6E4CE010197C5
:1007E000F1F763E087E393E00E9402032197F1F7BA
:1007F00063E087E393E00E94020383E592E00197C0
:10080000F1F762E087E393E00E94020380914603E0
:1008100080620E94820384E0809347038CE00E9400
:1008200082030E94880382E08093480386E0DF9180
:10083000CF910C94820380620E9482038BE496E441
:100840000197F1F78091460380620E94820383E55D
:1008500092E00197F1F78091460380620E94820343
:10086000D5CF90914A03691710F06FEF690FE62F0B
:10087000F0E0E95CFC4F9489890F80680C94820356
:1008800041E00E942F0381E090E0089541E0682F4D
:1008900087E393E00E942F0381E090E008958F9218
:1008A0009F92AF92BF92CF92DF92EF92FF920F93FF
:1008B0001F93CF93DF93CDB7DEB7A1970FB6F89410
:1008C000DEBF0FBECDBF6C01990FEE08FF08F7FE2B
:1008D00041C08DE20E9446048C0122273327A901E2
:1008E0002C193D094E095F0919A2CE0181967C01A0
:1008F0009AE0892E912CA12CB12CCA01B901A50135
:1009000094010E944C0D605DF70162937F012115F7
:1009100031054105510589F790E080E0309729F0D5
:10092000BF0187E393E00E94B102800F911FA1965F
:100930000FB6F894DEBF0FBECDBFDF91CF911F91F0
:100940000F91FF90EF90DF90CF90BF90AF909F906E
:100950008F900895A701960119A28E010F5D1F4F78
:100960008AE0C82ED12CE12CF12CCA01B901A701D3
:1009700096010E944C0D605DF80162938F01211574
:1009800031054105510589F790E080E0309779F213
:10099000BF0187E393E00E94B102C9CFCF92DF92FB
:1009A000EF92FF920F931F93CF93DF930E94A102C8
:1009B000009186021091870220918802309189026D
:1009C0006B017C01C01AD10AE20AF30A9701860181
:1009D000093E13402105310590F020919702309196
:1009E00098026093860270938702809388029093A6
:1009F0008902C90101979093980280939702809190
:100A0000970290919802019679F4809193029091C7
:100A100094022BE330E030939802209397020197E1
:100A20009093940280939302809193029091940208
:100A3000019679F480919502909196022BE330E033
:100A4000309394022093930201979093960280939F
:100A500095028091950290919602019621F4109250
:100A600096021092950261E084E00E943104C091E8
:100A70009502D0919602CA30D1051CF480E30E9401
:100A80004604CE010E944F048AE30E944604C091AE
:100A90009302D0919402CA30D1051CF480E30E94E5
:100AA0004604CE010E944F048AE30E944604C0918E
:100AB0009702D0919802CA30D1051CF480E30E94BD
:100AC0004604CE01DF91CF911F910F91FF90EF90DF
:100AD000DF90CF900C944F04FC01808191810097AE
:100AE00011F00C94100E08950F931F93CF93DF9382
:100AF000EC0188819981009759F02A813B81261762
:100B0000370730F081E0DF91CF911F910F91089569
:100B10008B016F5F7F4F0E94990E009759F0998368
:100B200088831B830A832C813D81232B59F7FC0189
:100B30001082E8CF80E0E7CFEF92FF920F931F93F0
:100B4000CF93DF93EC01FB01E080F180E114F1042D
:100B500011F10481158101151105A9F08C819D8188
:100B6000080F191FB801CE010E947405882399F05F
:100B7000288139818C819D81B701820F931F0E944A
:100B80005F0F1D830C83CE01DF91CF911F910F91D9
:100B9000FF90EF90089588819981009711F00E944D
:100BA000100E198218821D821C821B821A82EBCFC2
:100BB000EF92FF920F931F93CF93DF93EC017B0192
:100BC0008A01BA010E94740528813981811114C0FB
:100BD0002115310519F0C9010E94100E19821882E1
:100BE0001D821C821B821A82CE01DF91CF911F9140
:100BF0000F91FF90EF9008951D830C83B701C901F9
:100C00000E945F0FF1CFEF92FF920F931F93CF934C
:100C1000DF93CDB7DEB762970FB6F894DEBF0FBE95
:100C2000CDBF8C01CB01F801118210821382128298
:100C3000158214824AE09E012F5F3F4F7901B9016E
:100C40000E94CA0CF70101900020E9F73197AF012B
:100C50004E195F09B701C8010E94D80562960FB608
:100C6000F894DEBF0FBECDBFDF91CF911F910F91E2
:100C7000FF90EF900895FC0111821082138212827E
:100C800015821482FB0101900020E9F73197AF0132
:100C9000461B570B0C94D8050C94070D0C94FF0CB5
:100CA000CF93DF9381E090E00E944E0690E0909316
:100CB00096028093950282E090E00E944E0690E0BA
:100CC000909394028093930283E090E00E944E06FA
:100CD00090E090939802809397020E94880360E0CE
:100CE00080E00E9431046CE271E087E393E00E94AF
:100CF000EA0261E084E00E943104C0919502D09143
:100D00009602CA30D1051CF480E30E944604CE014D
:100D10000E944F048AE30E944604C0919302D0913E
:100D20009402CA30D1051CF480E30E944604CE012F
:100D30000E944F048AE30E944604C0919702D0911A
:100D40009802CA30D1051CF480E30E944604CE010B
:100D50000E944F0481E080930201809301018093FF
:100D60000001DF91CF910895CF93DF93CDB7DEB728
:100D70002C970FB6F894DEBF0FBECDBF0E94A10224
:100D800081E090E00E944E0690E09093960280935E
:100D9000950282E090E00E944E0690E090939402CB
:100DA0008093930283E090E00E944E0690E090933F
:100DB0009802809397028091030190910401892BFE
:100DC00071F460E082E00E94EB0160E080E00E944C
:100DD000EB018FEF9FEF90930401809303018091CB
:100DE000030190910401019791F460E082E00E9478
:100DF000EB0160E083E00E94EB0160E080E00E9494
:100E0000EB018FEF9FEF909304018093030180919A
:100E10000301909104010297B1F460E082E00E9426
:100E2000EB0160E083E00E94EB0160E084E00E945F
:100E3000EB0160E080E00E94EB018FEF9FEF909369
:100E400004018093030180910301909104010397B1
:100E5000D1F460E082E00E94EB0160E083E00E9458
:100E6000EB0160E084E00E94EB0160E085E00E941D
:100E7000EB0160E080E00E94EB018FEF9FEF909329
:100E80000401809303016091030170910401CE017C
:100E900007960E9403066CE371E0CE0101960E9462
:100EA0003B06BE01695F7F4FCE0101960E949C0503
:100EB0000E94C002CE0101960E946C05CE010796E9
:100EC0000E946C052C960FB6F894DEBF0FBECDBF06
:100ED000DF91CF9108950E94A10281E090E00E94ED
:100EE0004E0690E0909396028093950282E090E007
:100EF0000E944E0690E0909394028093930283E0C8
:100F000090E00E944E0690E09093980280939702A2
:100F100008951F920F920FB60F9211242F933F93B3
:100F20004F935F936F937F938F939F93AF93BF93F1
:100F3000EF93FF938AE992E00E940A01FF91EF91FB
:100F4000BF91AF919F918F917F916F915F914F91E1
:100F50003F912F910F900FBE0F901F9018951F92E9
:100F60000F920FB60F9211242F938F939F93EF93AD
:100F7000FF93E091AA02F091AB028081E091B00270
:100F8000F091B10282FD1BC090818091B3028F5F0E
:100F90008F732091B402821741F0E091B302F0E028
:100FA000E656FD4F958F8093B302FF91EF919F918D
:100FB0008F912F910F900FBE0F901F9018958081E9
:100FC000F4CF1F920F920FB60F9211242F933F93DD
:100FD0008F939F93AF93BF9380918B0290918C02DC
:100FE000A0918D02B0918E0230918A0223E0230FEE
:100FF0002D3758F50196A11DB11D20938A028093CB
:101000008B0290938C02A0938D02B0938E028091FC
:101010008F0290919002A0919102B091920201965C
:10102000A11DB11D80938F0290939002A093910215
:10103000B0939202BF91AF919F918F913F912F9169
:101040000F900FBE0F901F90189526E8230F029661
:10105000A11DB11DD2CFEAE9F2E01382128288EE1F
:1010600093E0A0E0B0E084839583A683B7838FE00C
:1010700091E09183808385EC90E09587848784EC70
:1010800090E09787868780EC90E0918B808B81EC55
:1010900090E0938B828B82EC90E0958B848B86EC36
:1010A00090E0978B868B118E128E138E148EE7E351
:1010B000F3E01382128281E291E09183808387E0E2
:1010C00084838FEF858388E0868389E087838AE045
:1010D00080878BE081878CE0828713861486158653
:1010E0001686178681E00C949003CF93DF93CDB7DB
:1010F000DEB72C970FB6F894DEBF0FBECDBF789445
:1011000084B5826084BD84B5816084BD85B582600C
:1011100085BD85B5816085BD80916E0081608093BD
:101120006E00109281008091810082608093810026
:101130008091810081608093810080918000816036
:10114000809380008091B10084608093B100809191
:10115000B00081608093B00080917A0084608093B9
:101160007A0080917A00826080937A0080917A0080
:10117000816080937A0080917A00806880937A0001
:101180001092C100E091AA02F091AB0282E080834C
:10119000E091A602F091A7021082E091A802F091DE
:1011A000A9028FEC80831092B202E091AE02F0911E
:1011B000AF0286E08083E091AC02F091AD028081C5
:1011C00080618083E091AC02F091AD028081886003
:1011D0008083E091AC02F091AD02808180688083D1
:1011E000E091AC02F091AD0280818F7D808369E552
:1011F00071E08AE992E00E94EA0282E00E94900394
:101200000E94880360E080E00E94310465E671E09E
:1012100087E393E00E94EA0261E080E00E943104EB
:1012200060E771E087E393E00E94EA0262E083E115
:101230000E94190262E080E10E94190262E08FE0E0
:101240000E94190262E081E10E94190262E082E1DB
:101250000E94190261E080E00E94190261E081E0D1
:101260000E94190261E082E00E94190261E083E0BD
:101270000E94190261E084E00E94190261E085E0A9
:101280000E94190260E081E00E94EB0160E080E0D2
:101290000E94EB0190E080E00E944E06823309F448
:1012A000CCC162E390E080E00E944C0660E081E007
:1012B00090E00E944C0661E082E090E00E944C06C3
:1012C00062E083E090E00E944C0664EF71E080E011
:1012D00090E00E946F020E94500602E010E093E04E
:1012E000E92EF12CCC24C394D12C83E10E94C201BD
:1012F000892B09F0CBC10E94880360E082E00E9444
:1013000031048AE791E00E94D7026FE871E087E339
:1013100093E00E94EA0281E0809399028091990211
:10132000882309F4B3C182E10E94C201892B81F4B0
:101330000E94A1020E94880360E082E00E943104C2
:101340006FE871E087E393E00E94EA020E94B4062E
:101350000E94A10261E081E00E94EB01809197026E
:10136000909198020497B4F460E081E00E94310407
:101370006BE971E087E393E00E94EA0261E080E0BC
:101380000E94EB0161E082E00E94EB0110920401F7
:10139000109203010E94CE048091950290919602D2
:1013A000892B09F0BBCF8091930290919402892BF5
:1013B00009F0B4CF8091970290919802892B09F09F
:1013C000ADCF8AEA91E00E94D70261E082E00E94FC
:1013D000EB0161E083E00E94EB010E94880360E082
:1013E00080E00E9431046CEB71E087E393E00E949F
:1013F000EA02D0920401C092030161E080E00E9401
:10140000310461E070E0CE0101960E9403066CECAD
:1014100071E0CE0107960E943B06BE016F5F7F4FD1
:10142000CE0107960E949C050E94C002CE0107963D
:101430000E946C05CE0101960E946C050E946B070C
:101440008091030190910401019709F012C182E19A
:101450000E94C201019709F00CC10E94CE04809144
:10146000950290919602892B59F780919302909161
:101470009402892B29F78091970290919802892BE9
:10148000F9F680EE91E00E94D70261E082E00E94CE
:10149000EB0161E083E00E94EB0161E084E00E94E7
:1014A000EB0110930401009303010E94880360E0A4
:1014B00080E00E94310462EF71E087E393E00E94D4
:1014C000EA026091030170910401CE0101960E942D
:1014D00003066CEC71E0CE0107960E943B06BE014C
:1014E0006F5F7F4FCE0107960E949C050E94C0024D
:1014F000CE0107960E946C05CE0101960E946C05F4
:101500000E946B078091030190910401029709F0FA
:1015100097CF82E10E94C201019709F091CF0E940A
:10152000CE048091950290919602892B59F7809173
:10153000930290919402892B29F7809197029091C0
:101540009802892BF9F682E092E00E94D70261E0CE
:1015500082E00E94EB0161E083E00E94EB0161E028
:1015600084E00E94EB0161E085E00E94EB010E94B3
:10157000880360E080E00E94310464E172E087E368
:1015800093E00E94EA026091030170910401CE0190
:1015900001960E9403066CEC71E0CE0107960E9452
:1015A0003B06BE016F5F7F4FCE0107960E949C05F0
:1015B0000E94C002CE0107960E946C05CE010196E2
:1015C0000E946C05F0920401E09203010E946B07F7
:1015D0008091030190910401039709F093CF82E178
:1015E0000E94C201019709F08DCF0E94CE04809124
:1015F000950290919602892B59F7809193029091D0
:101600009402892B29F78091970290919802892B57
:10161000F9F661E080E00E94310464E272E087E361
:1016200093E00E94EA0284E392E00E94D70282E102
:101630000E94C2010197D9F3CBCF81E090E00E94D4
:101640004E0690E0909396028093950282E090E09F
:101650000E944E0690E0909394028093930283E060
:1016600090E00E944E0690E090939802809397023B
:101670002CCE60E081E00E94EB0160E084E00E94FB
:101680003104109299020E94500648CE81E10E94D6
:10169000C20120919902213009F457C1892B09F028
:1016A00054C164EF71E080E090E00E946F0280918D
:1016B0000201882309F45CC00E94880360E080E096
:1016C0000E94310460E572E087E393E00E94EA0241
:1016D00080919702909198020E944F0464E670E016
:1016E00080E090E00E946F0280E10E94C201892B9D
:1016F00091F4809197029091980201968C33910514
:101700006CF5909398028093970264E670E080E015
:1017100090E00E946F028FE00E94C201892B89F441
:101720008091970290919802019797FD1CC0909329
:1017300098028093970264E670E080E090E00E9457
:101740006F0281E10E94C201892B09F0B0CF109293
:1017500002016AEF70E080E090E0A7CF109298025B
:1017600010929702D2CF1092980210929702E3CF74
:1017700080910101882309F45EC00E94880360E023
:1017800080E00E9431046EE572E087E393E00E94FE
:10179000EA0280919302909194020E944F0464E6C1
:1017A00070E080E090E00E946F0280E10E94C20140
:1017B000892B91F4809193029091940201968C333D
:1017C00091057CF5909394028093930264E670E017
:1017D00080E090E00E946F028FE00E94C201892B9E
:1017E00089F48091930290919402019797FD1EC015
:1017F000909394028093930264E670E080E090E01E
:101800000E946F0281E10E94C201892B09F0B0CFD2
:10181000109201016AEF70E080E090E00E946F0298
:10182000A7CF1092940210929302D0CF10929402FC
:1018300010929302E1CF80910001882309F45EC0E9
:101840000E94880360E080E00E9431046BE672E051
:1018500087E393E00E94EA028091950290919602BC
:101860000E944F0464E670E080E090E00E946F0206
:1018700080E10E94C201892B91F4809195029091A0
:1018800096020196883191057CF59093960280939B
:10189000950264E670E080E090E00E946F028FE0C5
:1018A0000E94C201892B89F4809195029091960241
:1018B000019797FD1EC0909396028093950264E66F
:1018C00070E080E090E00E946F0281E10E94C2011E
:1018D000892B09F0B0CF109200016AEF70E080E030
:1018E00090E00E946F02A7CF10929602109295028C
:1018F000D0CF1092960210929502E1CF609195029E
:101900007091960261157105A1F5809193029091F5
:101910009402892B71F58091970290919802892BFE
:1019200041F50E94880360E080E00E94310466E790
:1019300072E087E393E00E94EA0260ED77E080E0E6
:1019400090E00E946F020E94500682E10E94C20154
:10195000892B11F40E94B40680E090E0892B09F4F1
:10196000C4CC0E94F600882309F4BCCC0E9400007D
:10197000B9CC81E090E00E944C066091930282E035
:1019800090E00E944C066091970283E090E00E94F4
:101990004C06D9CFBB274A3031F4992322F4BDE25B
:1019A000909581959F4F0C94D60CBB27FB01552732
:1019B000AA27880F991FAA1FA41710F0A41B8395AC
:1019C0005051B9F7A05DAA3308F0A95DA193009723
:1019D00079F7B111B1931192CB010C94EF0CDC01AA
:1019E000FC01672F71917723E1F7329704C07C9156
:1019F0006D9370836291AE17BF07C8F30895F9998C
:101A0000FECF92BD81BDF89A992780B50895262F03
:101A1000F999FECF1FBA92BD81BD20BD0FB6F894D3
:101A2000FA9AF99A0FBE019608952F923F924F921B
:101A30005F926F927F928F929F92AF92BF92CF925E
:101A4000DF92EF92FF920F931F93CF93DF93CDB767
:101A5000DEB7CA1BDB0B0FB6F894DEBF0FBECDBFDF
:101A600009942A88398848885F846E847D848C84B0
:101A70009B84AA84B984C884DF80EE80FD800C81B9
:101A80001B81AA81B981CE0FD11D0FB6F894DEBF9C
:101A90000FBECDBFED010895A1E21A2EAA1BBB1BFC
:101AA000FD010DC0AA1FBB1FEE1FFF1FA217B3072A
:101AB000E407F50720F0A21BB30BE40BF50B661F40
:101AC000771F881F991F1A9469F760957095809504
:101AD00090959B01AC01BD01CF010895EE0FFF1F52
:101AE0000590F491E02D09940F931F93CF93DF930A
:101AF0008230910510F482E090E0E0915103F09182
:101B0000520330E020E0B0E0A0E0309799F42115D6
:101B1000310509F44AC0281B390B24303105D8F5AA
:101B20008A819B816115710589F1FB019383828311
:101B3000FE0111C04081518102811381481759076C
:101B4000E0F04817590799F4109761F012960C933A
:101B5000129713961C933296CF01DF91CF911F916C
:101B60000F9108950093510310935203F4CF211560
:101B7000310551F04217530738F0A901DB019A01F2
:101B8000BD01DF01F801C1CFEF01F9CF90935203FE
:101B900080935103CDCFFE01E20FF31F8193919308
:101BA0002250310939832883D7CF20914F033091B8
:101BB0005003232B41F42091070130910801309309
:101BC000500320934F032091050130910601211508
:101BD000310541F42DB73EB74091090150910A01FA
:101BE000241B350BE0914F03F0915003E217F307EC
:101BF000A0F42E1B3F0B2817390778F0AC014E5F7D
:101C00005F4F2417350748F04E0F5F1F5093500366
:101C100040934F03819391939FCFF0E0E0E09CCFFE
:101C2000CF93DF930097E9F0FC0132971382128281
:101C3000A0915103B0915203ED0130E020E01097E4
:101C4000A1F420813181820F931F20914F033091A5
:101C500050032817390709F061C0F0935003E0934F
:101C60004F03DF91CF910895EA01CE17DF07E8F522
:101C70004A815B819E0141155105B1F7E901FB8362
:101C8000EA8349915991C40FD51FEC17FD0761F400
:101C9000808191810296840F951FE9019983888341
:101CA000828193819B838A83F0E0E0E012968D919C
:101CB0009C9113970097B9F52D913C911197CD0107
:101CC0000296820F931F20914F03309150032817E3
:101CD000390739F6309751F510925203109251039B
:101CE000B0935003A0934F03BCCFD383C2834081F2
:101CF0005181840F951FC817D90761F44E5F5F4F5C
:101D000088819981480F591F518340838A819B8123
:101D1000938382832115310509F0B0CFF0935203EC
:101D2000E09351039ECFFD01DC01C0CF13821282EC
:101D3000D7CFB0E0A0E0EFE9FEE00C94170D8C01E6
:101D4000009751F4CB010E94740D8C01C801CDB7EE
:101D5000DEB7E0E10C94330DFC01E60FF71F9C01A8
:101D600022503109E217F30708F49DC0D901CD9143
:101D7000DC911197C617D70798F0C530D10530F31D
:101D8000CE0104978617970708F3C61BD70B229737
:101D9000C193D1936D937C93CF010E94100ED6CF47
:101DA0005B01AC1ABD0A4C018C0E9D1EA091510323
:101DB000B0915203512C412CF12CE12C109731F5AC
:101DC00080914F03909150038815990509F05CC0EC
:101DD0004616570608F058C08091050190910601FB
:101DE000009741F48DB79EB74091090150910A01C7
:101DF000841B950BE817F90708F055C0F0935003C2
:101E0000E0934F03F90171836083A0CF8D919C9182
:101E1000119712966C90129713967C901397A815B1
:101E2000B90559F56C0142E0C40ED11CCA14DB049B
:101E300020F1AC014A195B09DA011296159780F07E
:101E40006282738251834083D9016D937C93E11444
:101E5000F10471F0D7011396FC93EE93129776CFAD
:101E600022968C0F9D1FF90191838083F301EFCFA0
:101E7000F0935203E093510369CF4816590608F4D2
:101E80002C017D01D3019ACFCB010E94740D7C01FE
:101E9000009749F0AE01B8010E94560FC8010E9498
:101EA000100E870153CF10E000E050CFFB01DC01A2
:101EB00002C001900D9241505040D8F70895FB01A7
:101EC000DC0101900D920020E1F70895F894FFCF16
:101ED000010101FFFF000053038000000000002CFF
:101EE000018C00B9007901EA00C800DC00000000A4
:101EF0000040048C00AE02AD020D0A005374617202
:101F00007420436F756E74646F776E0052657365ED
:101F10007474696E67207769746820616C61726D92
:101F2000206C6576656C3A200050524F4720535420
:101F30004152540A00202020444541444D414E0066
:101F400020202020414C41524D0053746172742076
:101F5000627574746F6E207072657373656400418E
:101F60004C41524D2054494D4552005741524E4923
:101F70004E473A20524553455400696E7369646573
:101F8000206C6576656C20312069660020204C4508
:101F900056454C203120414C41524D00616C6172DC
:101FA0006D206C6576656C2076616C75653A2000F5
:101FB000696E73696465206C6576656C2032206992
:101FC000660020204C4556454C203220414C415261
:101FD0004D00696E73696465206C6576656C2033AD
:101FE0002069660020204C4556454C203320414C4A
:101FF00041524D002020204445414420414C415253
:102000004D202000696E73696465206C6576656C8F
:102010002066696E616C20737461676520494600B3
:10202000534554205345434F4E44533A20005345A3
:1020300054204D494E5554453A20005345542048AC
:102040004F55523A20002020494E56414C494420D9
:0620500054494D4500005B
:107E0000112484B714BE81FFF0D085E080938100F7
:107E100082E08093C00088E18093C10086E0809377
:107E2000C20080E18093C4008EE0C9D0259A86E02C
:107E300020E33CEF91E0309385002093840096BBD3
:107E4000B09BFECF1D9AA8958150A9F7CC24DD24C4
:107E500088248394B5E0AB2EA1E19A2EF3E0BF2EE7
:107E6000A2D0813461F49FD0082FAFD0023811F036
:107E7000013811F484E001C083E08DD089C08234E0
:107E800011F484E103C0853419F485E0A6D080C0E4
:107E9000853579F488D0E82EFF2485D0082F10E0AE
:107EA000102F00270E291F29000F111F8ED06801E7
:107EB0006FC0863521F484E090D080E0DECF843638
:107EC00009F040C070D06FD0082F6DD080E0C81688
:107ED00080E7D80618F4F601B7BEE895C0E0D1E017
:107EE00062D089930C17E1F7F0E0CF16F0E7DF06D8
:107EF00018F0F601B7BEE89568D007B600FCFDCFD4
:107F0000A601A0E0B1E02C9130E011968C91119780
:107F100090E0982F8827822B932B1296FA010C0160
:107F200087BEE89511244E5F5F4FF1E0A038BF0790
:107F300051F7F601A7BEE89507B600FCFDCF97BE46
:107F4000E89526C08437B1F42ED02DD0F82E2BD052
:107F50003CD0F601EF2C8F010F5F1F4F84911BD097
:107F6000EA94F801C1F70894C11CD11CFA94CF0C13
:107F7000D11C0EC0853739F428D08EE10CD085E9AC
:107F80000AD08FE07ACF813511F488E018D01DD067
:107F900080E101D065CF982F8091C00085FFFCCF94
:107FA0009093C60008958091C00087FFFCCF809118
:107FB000C00084FD01C0A8958091C6000895E0E648
:107FC000F0E098E1908380830895EDDF803219F02E
:107FD00088E0F5DFFFCF84E1DECF1F93182FE3DFCA
:107FE0001150E9F7F2DF1F91089580E0E8DFEE27F6
:047FF000FF270994CA
:027FFE00040479
:00000001FF
