:100000000C9462000C948A000C948A000C948A0070
:100010000C948A000C948A000C948A000C948A0038
:100020000C948A000C948A000C948A000C948A0028
:100030000C948A000C948A000C948A000C948A0018
:100040000C944B050C948A000C9419050C94F30441
:100050000C948A000C948A000C948A000C948A00F8
:100060000C948A000C948A000000000024002700F1
:100070002A0000000000250028002B0000000000DE
:1000800023002600290004040404040404040202DA
:100090000202020203030303030301020408102007
:1000A0004080010204081020010204081020000012
:1000B0000008000201000003040700000000000027
:1000C0000000950511241FBECFEFD8E0DEBFCDBFE5
:1000D00011E0A0E0B1E0E4EFF3E102C005900D9281
:1000E000A439B107D9F722E0A4E9B1E001C01D921B
:1000F000A236B207E1F710E0C2E6D0E004C02197D3
:10010000FE010E94F209C136D107C9F70E94DF053E
:100110000C94F8090C940000FC01538D448D252F9C
:1001200030E0842F90E0821B930B541710F0CF9691
:10013000089501970895FC01918D828D981761F0C3
:10014000A28DAE0FBF2FB11D5D968C91928D9F5FDA
:100150009F73928F90E008958FEF9FEF0895FC01B9
:10016000918D828D981731F0828DE80FF11D858D6C
:1001700090E008958FEF9FEF0895FC01918D228DFF
:10018000892F90E0805C9F4F821B91098F73992784
:100190000895FC01A48DA80FB92FB11DA35ABF4F1C
:1001A0002C91848D90E001968F739927848FA68976
:1001B000B7892C93A089B1898C91837080648C93CA
:1001C000938D848D981306C00288F389E02D808179
:1001D0008F7D80830895EF92FF920F931F93CF93AB
:1001E000DF93EC0181E0888F9B8D8C8D98131AC072
:1001F000E889F989808185FF15C09FB7F894EE8959
:10020000FF896083E889F9898081837080648083B5
:100210009FBF81E090E0DF91CF911F910F91FF9000
:10022000EF900895F62E0B8D10E00F5F1F4F0F73A8
:100230001127E02E8C8D8E110CC00FB607FCFACF63
:10024000E889F989808185FFF5CFCE010E94C90038
:10025000F1CFEB8DEC0FFD2FF11DE35AFF4FF08234
:100260009FB7F8940B8FEA89FB8980818062CFCF9A
:10027000CF93DF93EC01888D8823B9F0AA89BB89DD
:10028000E889F9898C9185FD03C0808186FD0DC0C8
:100290000FB607FCF7CF8C9185FFF2CF808185FFE9
:1002A000EDCFCE010E94C900E9CFDF91CF91089533
:1002B0008DEA91E00E94BD0021E0892B09F420E045
:1002C000822F089580E090E0892B29F00E94580148
:1002D00081110C9400000895AF92BF92CF92DF92EB
:1002E000EF92FF920F931F93CF93DF936C017B01EB
:1002F0008B01040F151FEB015E01AE18BF08C0177C
:10030000D10759F06991D601ED91FC910190F081EE
:10031000E02DC6010995892B79F7C501DF91CF91B1
:100320001F910F91FF90EF90DF90CF90BF90AF9013
:100330000895833081F028F4813099F08230A9F05B
:1003400008958730A9F08830C9F08430B1F48091E5
:1003500080008F7D03C0809180008F778093800024
:10036000089584B58F7784BD089584B58F7DFBCFC4
:100370008091B0008F778093B00008958091B00095
:100380008F7DF9CFCF93DF93282F30E0F901E2552D
:10039000FF4F8491F901E656FF4FD491F901EA57D6
:1003A000FF4FC491CC23A1F081110E949901EC2F41
:1003B000F0E0EE0FFF1FE458FF4FA591B491EC91D0
:1003C000ED2381E090E009F480E0DF91CF91089582
:1003D00080E090E0FACF1F93CF93DF93282F30E097
:1003E000F901E255FF4F8491F901E656FF4FD49190
:1003F000F901EA57FF4FC491CC23A9F0162F8111C0
:100400000E949901EC2FF0E0EE0FFF1FEE58FF4F16
:10041000A591B4918FB7F894EC91111108C0D095C3
:10042000DE23DC938FBFDF91CF911F910895DE2BE8
:10043000F8CFCF93DF9390E0FC01E656FF4F249175
:100440008A579F4FFC0184918823D1F090E0880F58
:10045000991FFC01E859FF4FA591B491FC01EE589A
:10046000FF4FC591D491623071F49FB7F8943C91DD
:10047000822F809583238C93E8812E2B28839FBF26
:10048000DF91CF9108958FB7F894EC912E2B2C9398
:100490008FBFF6CF3FB7F894809195019091960168
:1004A000A0919701B091980126B5A89B05C02F3F58
:1004B00019F00196A11DB11D3FBFBA2FA92F982F8A
:1004C0008827BC01CD01620F711D811D911D42E085
:1004D000660F771F881F991F4A95D1F708958F924D
:1004E0009F92AF92BF92CF92DF92EF92FF924B0119
:1004F0005C010E944A026B017C010E944A026C1955
:100500007D098E099F09683E734081059105A8F316
:1005100021E0821A9108A108B10888EEC80E83E094
:10052000D81EE11CF11C81149104A104B10429F727
:10053000FF90EF90DF90CF90BF90AF909F908F9003
:100540000895089590E080E008958F929F92AF9271
:10055000BF920F931F93CF93DF93CDB7DEB7A197D1
:100560000FB6F894DEBF0FBECDBF19A2423008F41B
:100570004AE08E010F5D1F4F842E912CB12CA12CCF
:10058000A50194010E94D009E62FB901CA01EA3001
:1005900044F5E05DD801EE938D01232B242B252B10
:1005A00079F790E080E0109769F0FD01019000205C
:1005B000E9F73197AF014A1B5B0BBD018AE492E07A
:1005C0000E946C01A1960FB6F894DEBF0FBECDBF9E
:1005D000DF91CF911F910F91BF90AF909F908F901F
:1005E0000895E95CD7CFCF93DF93EC0160E08E8173
:1005F0000E94EB0161E08E810E94EB0160E08E8140
:100600000E94EB018BE891E00197F1F7DF91CF9128
:100610000895CF92DF92EF92FF920F931F93CF93A3
:10062000DF936C017C0187E0E80EF11CD0E0C0E0B4
:10063000062F10E0B8010C2E02C0759567950A943C
:10064000E2F76170F70181917F010E94EB01219631
:10065000C430D10579F7C601DF91CF911F910F9179
:10066000FF90EF90DF90CF900C94F302CF92DF9247
:10067000EF92FF920F931F93CF93DF93EC01F62E2F
:10068000642F8C810E94EB018D818F3F19F060E017
:100690000E94EB010F2D10E08F8584FF25C06E01B5
:1006A00087E0C80ED11CF12CE12CB8010E2C02C041
:1006B000759567950A94E2F76170F60181916F0173
:1006C0000E94EB01FFEFEF1AFF0A88E0E816F10441
:1006D00061F7CE01DF91CF911F910F91FF90EF90C5
:1006E000DF90CF900C94F302B80184E07595679584
:1006F0008A95E1F7CE010E9409036F2DCE01DF91AB
:10070000CF911F910F91FF90EF90DF90CF900C94BD
:10071000090340E0682F8AE492E00C94360381E0FC
:100720000E9489038BE39FE10197F1F70895CF932E
:10073000DF93823029F49091590298609093590286
:1007400080935D0210925E0280E480935F0280E1FC
:100750008093600280E58093610261E080914E02A7
:100760000E94190280914F028F3F19F061E00E94B0
:10077000190261E0809150020E941902CAE4D2E09D
:100780009E012A5432408091590284FD0BC084E0BE
:1007900090E021962817390744F461E08E810E9489
:1007A0001902EECF88E090E0F4CF8BE39DE0019753
:1007B000F1F760E080914E020E94EB0160E08091D1
:1007C00050020E94EB0180914F028F3F19F060E0D0
:1007D0000E94EB018091590284FD34C063E08AE4F9
:1007E00092E00E940903CBE4D6E4CE010197F1F731
:1007F00063E08AE492E00E9409032197F1F763E045
:100800008AE492E00E94090383E592E00197F1F700
:1008100062E08AE492E00E940903809159028062BA
:100820000E94890384E080935A028CE00E9489032D
:100830000E948F0382E080935B0286E0DF91CF917C
:100840000C94890380620E9489038BE496E40197EB
:10085000F1F78091590280620E94890383E592E05A
:100860000197F1F78091590280620E948903D5CFE8
:1008700090915D02691710F06FEF690FE62FF0E0BD
:10088000E65BFD4F9489890F80680C94890341E0F1
:100890000E94360381E090E0089541E0682F8AE4E9
:1008A00092E00E94360381E090E00895CF92DF92BB
:1008B000EF92FF92CF93DF936C01990FEE08FF0840
:1008C000F7FE17C08DE20E944D04EC0166277727E2
:1008D000CB016C197D098E099F094AE00E94A5028F
:1008E0008C0F9D1FDF91CF91FF90EF90DF90CF9005
:1008F00008954AE0C701B601DF91CF91FF90EF90D4
:10090000DF90CF900C94A5020C94C2090C94BA0904
:10091000CF93DF9381E090E00E94860490E0909373
:10092000A1018093A00182E090E00E94860490E003
:1009300090939F0180939E0183E090E00E94860443
:1009400090E09093A3018093A2010E948F0360E046
:1009500080E00E9438044FE050E061E271E08AE4F8
:1009600092E00E946C0161E084E00E943804C09132
:10097000A001D091A101CA30D1051CF480E30E94EE
:100980004D04CE010E9456048AE30E944D04C0919A
:100990009E01D0919F01CA30D1051CF480E30E94D2
:1009A0004D04CE010E9456048AE30E944D04C0917A
:1009B000A201D091A301CA30D1051CF480E30E94AA
:1009C0004D04CE010E94560481E080930201809381
:1009D00001018093000164EF71E080E090E0DF911D
:1009E000CF910C946F021F920F920FB60F921124A9
:1009F0002F933F934F935F936F937F938F939F9327
:100A0000AF93BF93EF93FF938DEA91E00E94C900EB
:100A1000FF91EF91BF91AF919F918F917F916F91D6
:100A20005F914F913F912F910F900FBE0F901F90AC
:100A300018951F920F920FB60F9211242F938F9338
:100A40009F93EF93FF93E091BD01F091BE018081F0
:100A5000E091C301F091C40182FD1BC0908180919F
:100A6000C6018F5F8F732091C701821741F0E0911B
:100A7000C601F0E0E355FE4F958F8093C601FF91CC
:100A8000EF919F918F912F910F900FBE0F901F901C
:100A900018958081F4CF1F920F920FB60F921124F8
:100AA0002F933F938F939F93AF93BF93809199011F
:100AB00090919A01A0919B01B0919C013091940179
:100AC00023E0230F2D3758F50196A11DB11D20936A
:100AD00094018093990190939A01A0939B01B09304
:100AE0009C018091950190919601A0919701B09100
:100AF00098010196A11DB11D8093950190939601D7
:100B0000A0939701B0939801BF91AF919F918F915E
:100B10003F912F910F900FBE0F901F90189526E8D0
:100B2000230F0296A11DB11DD2CFEDEAF1E0138291
:100B3000128288EE93E0A0E0B0E084839583A683E0
:100B4000B78387E091E09183808385EC90E095877F
:100B5000848784EC90E09787868780EC90E0918B87
:100B6000808B81EC90E0938B828B82EC90E0958B74
:100B7000848B86EC90E0978B868B118E128E138E71
:100B8000148EEAE4F2E01382128289E191E091830B
:100B9000808387E084838FEF858388E0868389E084
:100BA00087838AE080878BE081878CE08287138649
:100BB000148615861686178681E00C949703789420
:100BC00084B5826084BD84B5816084BD85B5826052
:100BD00085BD85B5816085BD80916E008160809303
:100BE0006E0010928100809181008260809381006C
:100BF000809181008160809381008091800081607C
:100C0000809380008091B10084608093B1008091D6
:100C1000B00081608093B00080917A0084608093FE
:100C20007A0080917A00826080937A0080917A00C5
:100C3000816080937A0080917A00806880937A0046
:100C40001092C1004BE050E061E371E08DEA91E069
:100C50000E946C0182E00E9497030E948F0360E073
:100C600080E00E9438044AE050E06DE371E08AE4DD
:100C700092E00E946C0161E080E00E94380449E04B
:100C800050E068E471E08AE492E00E946C0162E066
:100C900083E10E94190262E080E10E94190262E091
:100CA0008FE00E94190262E081E10E94190262E075
:100CB00082E10E94190261E080E00E94190261E075
:100CC00081E00E94190261E082E00E94190261E065
:100CD00083E00E94190261E084E00E94190261E051
:100CE00085E00E94190260E081E00E94EB0160E073
:100CF00080E00E94EB0190E080E00E948604823355
:100D000009F490C162E390E080E00E94840460E016
:100D100081E090E00E94840461E082E090E00E9423
:100D2000840462E083E090E00E9484046CED75E04E
:100D300080E090E00E946F020E948804FF24F394F8
:100D4000EE24E39400E010E0DD24D394CBE3D0E084
:100D500083E10E94C201892B09F088C10E948F03A0
:100D600060E082E00E9438044BE050E062E571E010
:100D70008AE492E00E946C01E092AC018091AC01A7
:100D8000882309F473C182E10E94C201892B89F58D
:100D90008FB7F8944091990150919A0160919B010D
:100DA00070919C018FBF8FB7F89440919901509139
:100DB0009A0160919B0170919C018FBF81E090E04E
:100DC0000E94860490E09093A1018093A00182E0AC
:100DD00090E00E94860490E090939F0180939E0192
:100DE00083E090E00E94860490E09093A3018093BA
:100DF000A2018FB7F8948090990190909A01A090E9
:100E00009B01B0909C018FBF8092A8019092A90194
:100E1000A092AA01B092AB0161E081E00E94EB01D7
:100E20008091A4019091A501A091A601B091A70184
:100E3000A5019401281B390B4A0B5B0BDA01C90190
:100E4000893E9340A105B10588F08092A40190925B
:100E5000A501A092A601B092A7018091A201909154
:100E6000A30101979093A3018093A2018091A20115
:100E70009091A301019669F480919E0190919F0148
:100E8000D093A301C093A201019790939F018093F7
:100E90009E0180919E0190919F01019669F480913D
:100EA000A0019091A101D0939F01C0939E01019751
:100EB0009093A1018093A0018091A0019091A10144
:100EC000019621F41092A1011092A00161E084E04A
:100ED0000E943804A090A001B090A1013AE0A316AE
:100EE000B1041CF480E30E944D04C5010E94560425
:100EF0008AE30E944D04A0909E01B0909F014AE0B9
:100F0000A416B1041CF480E30E944D04C5010E94A4
:100F100056048AE30E944D04A090A201B090A30160
:100F20005AE0A516B1041CF480E30E944D04C501EB
:100F30000E9456048091A0019091A101892B09F093
:100F40001DCF80919E0190919F01892B09F016CFB2
:100F50008091A2019091A301892B09F00FCF60E04D
:100F600081E00E94EB0160E084E00E94380410926E
:100F7000AC0185E0A82EB12CD0929D0180919D01FD
:100F8000882309F46BC02FB7F89480919901909150
:100F90009A01A0919B01B0919C012FBF8093A80161
:100FA0009093A901A093AA01B093AB014091A40131
:100FB0005091A5016091A6017091A7013C014D01DE
:100FC000641A750A860A970AB401A301493E534080
:100FD00061057105B0F08093A4019093A501A093E1
:100FE000A601B093A70180E00E94C20161E0892BB5
:100FF00009F060E080E00E94EB0161E083E00E9484
:10100000EB0182E10E94C201892B09F0B7CF109257
:101010009D0160E080E00E94EB0160E082E00E94C0
:10102000EB01ACCF81E090E00E94860490E09093C9
:10103000A1018093A00182E090E00E94860490E0EC
:1010400090939F0180939E0183E090E00E9486042C
:1010500090E09093A3018093A20168CE31E0A31A9F
:10106000B10809F089CF0E94880488CE81E10E94EE
:10107000C2012091AC012F1509F45FC1892B09F041
:101080005CC164EF71E080E090E00E946F028091AB
:101090000201882309F45EC00E948F0360E080E0B3
:1010A0000E9438044DE050E06EE571E08AE492E081
:1010B0000E946C018091A2019091A3010E945604AC
:1010C00064E670E080E090E00E946F0280E10E94A0
:1010D000C201892B91F48091A2019091A301019604
:1010E0008C3391056CF59093A3018093A20164E683
:1010F00070E080E090E00E946F028FE00E94C201E9
:10110000892B89F48091A2019091A301019797FD09
:101110001CC09093A3018093A20164E670E080E07C
:1011200090E00E946F0281E10E94C201892B09F0C8
:10113000AECF109202016AEF70E080E090E0A5CFA0
:101140001092A3011092A201D2CF1092A30110928B
:10115000A201E3CF80910101882309F460C00E94BD
:101160008F0360E080E00E9438044CE050E06CE6C1
:1011700071E08AE492E00E946C0180919E0190915E
:101180009F010E94560464E670E080E090E00E94B7
:101190006F0280E10E94C201892B91F480919E012F
:1011A00090919F0101968C3391057CF590939F015E
:1011B00080939E0164E670E080E090E00E946F0200
:1011C0008FE00E94C201892B89F480919E01909149
:1011D0009F01019797FD1EC090939F0180939E01F0
:1011E00064E670E080E090E00E946F0281E10E947E
:1011F000C201892B09F0AECF109201016AEF70E0B5
:1012000080E090E00E946F02A5CF10929F011092A3
:101210009E01D0CF10929F0110929E01E1CF80914C
:101220000001882309F460C00E948F0360E080E021
:101230000E9438044AE050E069E771E08AE492E0F5
:101240000E946C018091A0019091A1010E9456041E
:1012500064E670E080E090E00E946F0280E10E940E
:10126000C201892B91F48091A0019091A101019676
:10127000883191057CF59093A1018093A00164E6EB
:1012800070E080E090E00E946F028FE00E94C20157
:10129000892B89F48091A0019091A101019797FD7C
:1012A0001EC09093A1018093A00164E670E080E0ED
:1012B00090E00E946F0281E10E94C201892B09F037
:1012C000AECF109200016AEF70E080E090E00E94E3
:1012D0006F02A5CF1092A1011092A001D0CF109261
:1012E000A1011092A001E1CF6091A0017091A10134
:1012F0006115710571F580919E0190919F01892B77
:1013000041F58091A2019091A301892B11F50E94D2
:101310008F0360E080E00E9438044EE050E064E813
:1013200071E08AE492E00E946C0160ED77E080E079
:1013300090E00E946F020E9488040115110509F4D3
:1013400007CD0E945801882309F402CD0E940000B5
:10135000FFCC81E090E00E94840460919E0182E0D5
:1013600090E00E9484046091A20183E090E00E94DA
:101370008404E1CFF999FECF92BD81BDF89A9927F7
:1013800080B50895262FF999FECF1FBA92BD81BD71
:1013900020BD0FB6F894FA9AF99A0FBE01960895F7
:1013A000A1E21A2EAA1BBB1BFD010DC0AA1FBB1F69
:1013B000EE1FFF1FA217B307E407F50720F0A21BDB
:1013C000B30BE40BF50B661F771F881F991F1A9448
:1013D00069F760957095809590959B01AC01BD0172
:1013E000CF010895EE0FFF1F0590F491E02D0994B1
:0413F000F894FFCF9F
:1013F40001010100000000EB006C018C003801BD0C
:10140400009B00AF000000000047046C01A202A191
:1014140002537461727420436F756E74646F776ED7
:101424000050524F472053544152540A0020202068
:10143400444541444D414E0020202020414C41521E
:101444004D00414C41524D2054494D4552005345A5
:1014540054205345434F4E44533A2000534554209F
:101464004D494E5554453A200053455420484F5554
:10147400523A20002020494E56414C4944205449B8
:041484004D450000D2
:00000001FF
